:020000040800F2
:100000000000012069670008456100084961000897
:100010004D610008516100085561000800000000B2
:10002000000000000000000000000000FD52000879
:100030005961000800000000C55300085D61000818
:10004000AD670008AD670008AD670008AD67000840
:10005000AD670008AD670008AD670008AD67000830
:10006000AD670008AD670008AD670008AD67000820
:10007000AD670008AD670008AD670008AD67000810
:10008000AD670008AD670008AD670008AD67000800
:10009000AD670008AD670008AD670008AD670008F0
:1000A000AD670008AD670008AD670008AD670008E0
:1000B000AD670008AD670008AD670008AD670008D0
:1000C000AD670008AD670008AD670008AD670008C0
:1000D000AD6700086961000879610008896100085E
:1000E000AD670008AD670008AD67000800000000BC
:1000F0000000000000000000000000000000000000
:100100000000000000000000AD670008AD670008B7
:1001100099610008A9610008AD670008AD67000893
:10012000AD670008AD670008AD670008AD6700085F
:10013000AD6700080000000000000000AD67000887
:10014000AD670008AD670008AD670008B961000839
:10015000000000000000000000000000000000009F
:10016000000000000000000000000000000000008F
:10017000000000000000000000000000000000007F
:10018000000000000000000000000000000000006F
:10019000000000000000000000000000000000005F
:1001A000000000000000000000000000000000004F
:1001B000000000000000000000000000000000003F
:1001C000000000000000000000000000000000002F
:1001D000000000000000000000000000000000001F
:0401E0005FF8E0F1F3
:1001E40010B5054C237833B9044B13B10448AFF36D
:1001F40000800123237010BD5C010020000000007A
:10020400D4670008084B10B51BB108490848AFF380
:1002140000800848036803B910BD074B002BFBD0CE
:10022400BDE81040184700BF000000006001002036
:10023400D46700085C01002000000000034613F8A6
:10024400012B002AFBD1181A0138704710B5044657
:1002540001F0FEFC064BA3FB0030800900F024FAF9
:10026400002221464FF0FF3000F0E0F9002010BDDD
:10027400D34D621008B5074A136843F010031360A6
:10028400032000F0C1F90F20FFF7E0FF05F056FD51
:10029400002008BD00200240024A136801331360A5
:1002A400704700BF78010020014B1868704700BFF9
:1002B4007801002010B582B00190FFF7F5FF0446E5
:1002C400FFF7F2FF001B019B9842F9D302B010BD67
:1002D400F0B482B00023019390F82430012B00F095
:1002E400C780012380F824304B68062B1BD806688E
:1002F400756B4FF4787292FAA2F4B4FA84F4013B69
:1003040003FB04F41F2707FA04F425EA04040D6828
:1003140092FAA2F2B2FA82F203FB02F205FA02F2B4
:100324002243726337E00C2B1AD80668376B4FF4FC
:10033400787292FAA2F5B5FA85F5073B03FB05F549
:100344001F2404FA05F527EA05050C6892FAA2F2BF
:10035400B2FA82F203FB02F39C402C4334631AE0AA
:100364000668F46A4FF4787292FAA2F5B5FA85F544
:100374000D3B03FB05F51F2707FA05F524EA0505E0
:100384000C6892FAA2F2B2FA82F203FB02F304FAC4
:1003940003F32B43F3620D68092D1BD90668F76834
:1003A400382292FAA2F4B4FA84F4A5F10A0303FB06
:1003B40004F4072505FA04F427EA04048D6892FA84
:1003C400A2F2B2FA82F203FB02F305FA03F2224329
:1003D400F26018E007683E69382292FAA2F4B4FA8F
:1003E40084F405FB04F4072303FA04F426EA040462
:1003F4008E6892FAA2F2B2FA82F205FB02F306FACE
:1004040003F323433B610B68103B012B26D803689D
:10041400194A93421CD19A6812F4000F20D19A68A9
:1004240042F400029A600B68102B1BD1134B1B681B
:10043400134AA2FB03239B0C03EB83035A00019290
:1004440002E0019B013B0193019B002BF9D10AE0DF
:10045400836A43F020038362012304E0002302E063
:10046400002300E00023002280F82420184600E046
:10047400022002B0F0BC70470024014014010020A7
:1004840083DE1B4338B503689A6812F0010F1ED04F
:1004940004469A6822F001029A60FFF705FF0546B8
:1004A4000EE0FFF701FF401B022809D9A36A43F0BD
:1004B4001003A362E36A43F00103E362012038BD41
:1004C40023689B6813F0010FEBD1002038BD002096
:1004D40038BD00BF002800F0918038B50446836A17
:1004E40023B9C36280F8243005F06EFC2046FFF780
:1004F400C9FFA36A13F0100F7AD1002878D1A36A38
:1005040023F4885323F0020343F00203A3626268D6
:10051400E3691A43E168022393FAA3F3B3FA83F37A
:1005240001FA03F31343A268B2F5807F04D0012AD1
:1005340005D14FF4807503E04FF4807500E0002589
:100544006269012A15D161B9A269013A4FF4604187
:1005540091FAA1F1B1FA81F18A4042F400621543A3
:1005640007E0A26A42F02002A262E26A42F00102BB
:10057400E26221684A6822F469422A434A60216897
:100584008D681F4A2A401A438A60A268B2F5807FA8
:1005940001D0012A0AD12269013A4FF4700191FA7B
:1005A400A1F1B1FA81F102FA01F100E0002125681C
:1005B400EA6A22F470020A43EA6222689168114AE4
:1005C4000A40934208D10023E362A36A23F00303A1
:1005D40043F00103A36238BDA36A23F0120343F07E
:1005E4001003A362E36A43F00103E362012038BD10
:1005F400A36A43F01003A362012038BD01207047B1
:10060400FDF7E1FFFE0E1FFF074AD36823F4E06302
:100614001B041B0C000200F4E060184340F0BF60B0
:1006240040F40030D060704700ED00E030B4164B69
:10063400DB68C3F30223C3F10704042C28BF04249A
:100644001D1D062D01D9DD1E00E00025012303FA3E
:1006540004F4013C2140A940AB40013B1A400A4349
:10066400002806DA00F00F001201D2B2074B1A5428
:1006740007E01201D2B200F1604000F5614080F859
:10068400002330BC704700BF00ED00E014ED00E033
:10069400420900F01F00012303FA00F0014B43F864
:1006A4002200704700E100E00138B0F1807F0AD2F7
:1006B400064B5860F021064A82F823100020986007
:1006C40007221A6070470120704700BF10E000E065
:1006D40000ED00E0042805D1054A136843F0040343
:1006E40013607047024A136823F0040313607047D1
:1006F40010E000E0F0B583B000263446D5E00122D6
:10070400A2400B6813409A4240F0CE804D68122DEF
:100714002DD00BD8022D27D003D85DB3012D1ED0C8
:1007240035E0032D30D0112D1BD030E0614FBD4298
:1007340020D008D8A7F58017BD421BD007F5803715
:10074400BD4224D116E05C4FBD4213D007F580377B
:10075400BD420FD0A7F58017BD4218D10AE0CE687C
:1007640015E0CE68043612E0CE6808360FE0CE6895
:100774000C360CE08D684DB1012D02D102610826C2
:1007840005E04261082602E0002600E00426FF2B73
:1007940001D8864601E000F1040EFF2B01D8A20027
:1007A40002E0A4F108029200DEF800700F259540E3
:1007B40027EA050506FA02F22A43CEF800204A6821
:1007C40012F0805F70D03D4A956945F0010595614E
:1007D400926902F001020192019AA708BD1C384AED
:1007E40052F8255004F0030292004FF00F0E0EFA57
:1007F40002FE25EA0E0E334DA8420DD005F58065A4
:10080400A8420BD005F58065A84209D005F580659E
:10081400A84207D1032506E0002504E0012502E0F3
:10082400022500E0042505FA02F24EEA020202372C
:10083400234D45F827204A6812F4803F05D005F57A
:1008440080652A681A432A6004E01F4D2A6822EA58
:1008540003022A604A6812F4003F04D01A4D6A6801
:100864001A436A6004E0184D6A6822EA03026A6067
:100874004A6812F4801F04D0134DAA681A43AA6070
:1008840004E0114DAA6822EA0302AA604A6812F43D
:10089400001F04D00C4DEA681343EB6004E00A4DDA
:1008A400EA6822EA0303EB6001340F2C7FF627AFDA
:1008B40003B0F0BD00002110000031100010024010
:1008C4000000014000080140000401400AB1016138
:1008D40070470904016170474368114A934208D87C
:1008E4005800B1FBF0F0C0F30B03032B16D804201F
:1008F4007047826832B903EB4300B1FBF0F040F477
:10090400004007E003EB830000EB8000B1FBF0F054
:1009140040F44040C0F30B0303B90120704700BF0B
:10092400A086010000284ED038B5044690F8353032
:1009340013F0FF0F04D1002380F8343005F06EFA71
:10094400242384F835302268136823F001031360EC
:1009540001F084F901461D4BA3FB00239B0C226884
:100964005360206865681A4A954201D8013308E04B
:100974004FF4967202FB03F3164AA2FB03239B096E
:100984000133036225682046FFF7A6FFE861226869
:10099400E169236A0B43136022682169E3680B430E
:1009A400936022686169A3690B43D360226813686A
:1009B40043F0010313600020A063202384F8353042
:1009C40084F8360038BD0120704700BF83DE1B4326
:1009D400A0860100D34D62102DE9F84307460D4669
:1009E400D0F80080CA00521A93000344DE6B1A6CDC
:1009F400B61A1B6B9E4200D91E4616F1030901D597
:100A040009F103094FEAA9091FE09E1AC5EBC502C3
:100A140093003B441B6B9E4200D91E4616F103090A
:100A240001D509F103094FEAA909EB005B1B9C00FE
:100A34003C44B3B2EAB2616B404602F07DFC636BA6
:100A440033446363236C33442364414608EB451306
:100A540003F510639B699BB2994509D2EA00521BC6
:100A640093003B441A6CDB6B9A4201D2002BCCD12D
:100A7400002E08DC012303FA05F5D1F8343823EA03
:100A84000505C1F834580020BDE8F883002867D074
:100A9400F0B587B0044690F8713313F0FF0F04D11A
:100AA400002380F8703305F011FC032384F87133BC
:100AB400206802F025F9254655F8107B6E460FCDC7
:100AC4000FC62B683360231D0ECB384602F0FEF8A8
:100AD4000021206802F01AF9002210E0D100891ADE
:100AE4008B002344012183F8291083F82820DA8518
:100AF400002183F82B1019635963D96301320E2A3C
:100B0400ECD9002212E0D100891A8B002344002181
:100B140083F8CD1183F8CC21DA8583F8CF11C3F89B
:100B2400D411C3F8D811C3F8E01101320E2AEAD95E
:100B3400254655F8107B6E460FCD0FC62B683360E3
:100B4400231D0ECB384602F0F7F8002584F8245014
:100B5400012384F87133206802F092FC284601E0F6
:100B64000120704707B0F0BD90F87033012B10D00E
:100B740010B50446012180F8701305F013FD2068B8
:100B840002F072FC206802F0B5F8002084F87003CB
:100B940010BD0220704700BF2DE9F04704460568E8
:100BA400284602F0A9FC002840F0B981206802F030
:100BB40073FC002800F0B381206802F06DFC10F093
:100BC400020F02D0236802225A61206802F064FCFA
:100BD40010F4002F33D0206802F062FC0746002690
:100BE4002AE017F0010F25D05FFA86F949462068FC
:100BF40002F066FC804610F0010F08D005EB4613A6
:100C04000122C3F8082B4946204605F091FB18F051
:100C1400080F07D0204605F083FB05EB4613082296
:100C2400C3F8082B18F0100F04D005EB461310225C
:100C3400C3F8082B01367F08002FD2D100E000262C
:100C4400206802F029FC10F4802F4ED0206802F0B6
:100C54002FFC0746002646E017F0010F41D05FFA4B
:100C640086F94946206802F035FC804610F0010FF1
:100C740010D0012202FA06F0D5F8343823EA000332
:100C8400C5F8343805EB4613C3F80829494620460D
:100C940005F05AFB18F0080F04D005EB46130822A0
:100CA400C3F8082918F0100F04D005EB46131022DE
:100CB400C3F8082918F0400F04D005EB461340226E
:100CC400C3F8082918F0020F04D005EB46130222DA
:100CD400C3F8082918F0800F03D031462046FFF7E7
:100CE4007BFE01367F08002FB6D1206802F0D4FBCA
:100CF40000280CDAD5F8043823F00103C5F80438C9
:100D0400204605F05BFB23684FF000425A612068DF
:100D140002F0C2FB10F4006F0BD0D5F8083813F0C2
:100D2400010F02D0204605F031FB23684FF4006226
:100D34005A61206802F0B0FB10F4805F3ED02F4669
:100D440005F50068D8F8043023F00103C8F804302E
:100D54000021206802F07AF8002207E007EB421332
:100D6400FF21C3F80819C3F8081B013263689A42CB
:100D7400F4D34FF0FF33C8F81830D8F81C3043F0E0
:100D84000113C8F81C30D8F8143043F00B03C8F82A
:100D94001430D8F8103043F00B03C8F81030D5F8ED
:100DA400003823F4FE63C5F8003804F55D7120684B
:100DB40002F0C2FB23684FF480525A61206802F0AB
:100DC4006BFB10F4005F17D0206802F099FB2268D7
:100DD400D36823F47053D3600323E3604023236177
:100DE4002268D36843F4A053D360204605F0BEFACA
:100DF40023684FF400525A61206802F04DFB10F052
:100E0400100F45D02268936923F0100393612F6A71
:100E140007F00F08C7F34343022B1FD147F6F073C3
:100E24001F4230D03F094FEAC80AC8EB0A034FEA11
:100E34008309A144C7F30A02D9F8D811284602F05D
:100E44008DFAC7F30A07D9F8D8313B44C9F8D83129
:100E5400D9F8E4311F44C9F8E47114E0062B12D127
:100E6400082204F55D71284602F078FAC7F30A17E0
:100E74004FEAC803C8EB03018A002244D2F8E431E4
:100E84003B44C2F8E4312268936943F01003936150
:100E9400206802F001FB10F0080F05D0204605F091
:100EA4005FFA236808225A61206802F0F5FA10F408
:100EB400801F07D0F1B2204605F08CFA23684FF466
:100EC40080125A61206802F0E7FA10F4001F07D07C
:100ED400F1B2204605F078FA23684FF400125A6103
:100EE400206802F0D9FA10F0804F06D0204605F0B1
:100EF40077FA23684FF080425A61206802F0CCFAF6
:100F040010F0040F0BD023685D6815F0040F02D0B5
:100F1400204605F06BFA226853682B435360BDE802
:100F2400F08700BF90F87033012B0DD010B5044644
:100F3400012380F8703380F82410006802F084FAEA
:100F4400002084F8700310BD0220704770B54DB2C4
:100F5400002D07DA01F07F06C6EBC606B40028347C
:100F6400044408E001F07F06C6EBC606B40004F5AD
:100F7400E4740444043401F07F012170ED0F6570C2
:100F8400A260E37090F87033012B0BD00546012367
:100F940080F870332146006801F086FF002085F850
:100FA400700370BD022070BD10B54AB2002A07DA82
:100FB40001F07F04C4EBC404A3002833034408E015
:100FC40001F07F04C4EBC404A30003F5E4730344F9
:100FD400043301F07F011970D20F5A7090F8702316
:100FE400012A0BD00446012280F8702319460068B8
:100FF40001F0AEFF002084F8700310BD022010BD84
:10100400F8B501F07F07FD00E91B8E0006F5E476D4
:101014000644311DEE1BB4000444C4F8D821C4F8BE
:10102400E0310023C4F8E43184F8CD3184F8CC7184
:1010340090F87033012B0FD00446012380F87033ED
:101044001FB9006802F0DAF802E0006801F0C0FF9E
:10105400002084F87003F8BD0220F8BD01F07F0180
:10106400C1EBC1018B001844B0F8E401704700BF24
:10107400F8B501F07F06F500A91B8C00283401198E
:10108400AF1BBC0004446263E363002323640123B5
:1010940084F8293084F8286090F87033012B0FD03D
:1010A4000446012380F870331EB9006802F0A6F8E4
:1010B40002E0006801F08CFF002084F87003F8BDA2
:1010C4000220F8BD38B54AB2002A07DA01F07F04DD
:1010D400C4EBC404A3002833034406E0C1EBC104F9
:1010E400A30003F5E4730344043301249C7001F06A
:1010F4007F041C70D20F5A7090F87023012A11D00B
:101104000546012280F870231946006802F036F97A
:1011140024B905F55D71286802F00EFA002085F8FF
:10112400700338BD022038BD10B54AB2002A07DA70
:1011340001F07F04C4EBC404A3002833034406E095
:10114400C1EBC104A30003F5E47303440433002496
:101154009C7001F07F011970D20F5A7090F87023BF
:10116400012A0BD00446012280F870231946006836
:1011740002F036F9002084F8700310BD022010BD7F
:1011840030B40468636A19B943EA0240A06218E003
:101194000D46A06A03EB1040002308E003F1400170
:1011A40004EB8101496800EB11400133DBB2691E95
:1011B4008B42F3DB40EA024005F13F0104EB81017D
:1011C4004860002030BC70470368596200207047B3
:1011D4004FF4807393FAA3F3B3FA83F39B0003F100
:1011E400844303F5602301221A60704730B583B04D
:1011F4000446036813F0010F00F09680B24B5B685D
:1012040003F00C03042B0AD0AF4B5B6803F00C0310
:10121400082B1BD1AC4B5B6813F4803F16D04FF402
:10122400003393FAA3F3A84B1A684FF4003393FAEC
:10123400A3F3B3FA83F303F01F0322FA03F313F0C7
:10124400010F71D0A368002B6ED161E3A368B3F5DD
:10125400803F05D19C4A136843F48033136026E031
:1012640063B903F1804303F504331A6822F480322E
:101274001A601A6822F480221A6018E0B3F5A02FCD
:101284000CD103F18043A3F53C331A6842F4802265
:101294001A601A6842F480321A6008E08A4B1A68AD
:1012A40022F480321A601A6822F480221A60A36839
:1012B400EBB1FEF7F9FF054605E0FEF7F5FF401B2D
:1012C400642800F227834FF4003393FAA3F37E4B90
:1012D4001A684FF4003393FAA3F3B3FA83F303F0D9
:1012E4001F0322FA03F313F0010FE6D01CE0FEF70C
:1012F400DBFF054605E0FEF7D7FF401B642800F23C
:101304000B834FF4003393FAA3F36F4B1A684FF433
:10131400003393FAA3F3B3FA83F303F01F0322FA1F
:1013240003F313F0010FE6D1236813F0020F00F06A
:101334009080654B5B6813F00C0F0AD0624B5B68BE
:1013440003F00C03082B27D15F4B5B6813F4803F39
:1013540022D1022393FAA3F35B4B1A68022393FA74
:10136400A3F3B3FA83F303F01F0322FA03F313F096
:10137400010F03D06369012B40F0D0825248036807
:1013840023F0F801A369F82292FAA2F2B2FA82F2E7
:1013940093400B4303605CE063699BB3012292FAC0
:1013A400A2F3B3FA83F39B0003F1844303F58403AC
:1013B4001A60FEF779FF054605E0FEF775FF401B4E
:1013C400022800F2AD82022393FAA3F33E4B1A687B
:1013D400022393FAA3F3B3FA83F303F01F0322FA6D
:1013E40003F313F0010FE8D03748036823F0F80142
:1013F400A369F82292FAA2F2B2FA82F293400B4362
:10140400036026E0012393FAA3F3B3FA83F39B006A
:1014140003F1844303F5840300221A60FEF744FFBA
:10142400054605E0FEF740FF401B022800F27A82E1
:10143400022393FAA3F3244B1A68022393FAA3F327
:10144400B3FA83F303F01F0322FA03F313F0010F3B
:10145400E8D1236813F0080F52D0E3693BB30122AB
:1014640092FAA2F3B3FA83F3184941F82320FEF762
:101474001BFF054605E0FEF717FF401B022800F29C
:101484005382022393FAA3F293FAA3F20E4A526A06
:1014940093FAA3F3B3FA83F303F01F0322FA03F3DB
:1014A40013F0010FE7D00120FEF704FF28E0012329
:1014B40093FAA3F3B3FA83F30021044A42F8231006
:1014C400FEF7F2FE054609E00010024080044242A5
:1014D400FEF7EAFE401B022800F22882022393FA58
:1014E400A3F293FAA3F2C34A526A93FAA3F3B3FAA8
:1014F40083F303F01F0322FA03F313F0010FE7D180
:10150400236813F0040F00F0A180BA4BDA6942F0AB
:101514008052DA61DB6903F080530193019BB64A80
:10152400136843F480731360FEF7BEFE054605E0BE
:10153400FEF7BAFE401B642800F2FA81AE4B1B682A
:1015440013F4807FF4D02369012B05D1A94A136ACF
:1015540043F00103136222E063B903F1804303F50E
:1015640004331A6A22F001021A621A6A22F004028F
:101574001A6214E0052B09D19E4B1A6A42F0040248
:101584001A621A6A42F001021A6208E0994B1A6A56
:1015940022F001021A621A6A22F004021A62236912
:1015A40053B3FEF781FE054607E0FEF77DFE401BC0
:1015B40041F28833984200F2BD81022393FAA3F2E8
:1015C40093FAA3F3B3FA83F35B0943F00203DBB2A8
:1015D400022B02D1874B1A6A01E0864B5A6A022316
:1015E40093FAA3F3B3FA83F303F01F0322FA03F38A
:1015F40013F0010FD9D029E0FEF756FE054607E0A7
:10160400FEF752FE401B41F28833984200F2948167
:10161400022393FAA3F293FAA3F3B3FA83F35B09D5
:1016240043F00203DBB2022B02D1724B1A6A01E0CF
:10163400704B5A6A022393FAA3F3B3FA83F303F0C9
:101644001F0322FA03F313F0010FD9D1E36A002B2D
:1016540000F0B180674A526812F4803F0BD0654AAB
:10166400526802F00C02082A05D1624AD26A12F4C6
:10167400803F40F06381022B6ED15E4B1B6813F0F8
:10168400805F07D05B4BDB6A03F0F003626B93422D
:1016940040F056814FF0806393FAA3F3B3FA83F3D7
:1016A4009B0003F1844303F5840300221A60FEF7D0
:1016B400FBFD054605E0FEF7F7FD401B642800F23C
:1016C40041814FF0006393FAA3F34A4B1A684FF039
:1016D400006393FAA3F3B3FA83F303F01F0322FA2C
:1016E40003F313F0010FE6D1424BDA6A22F0F00162
:1016F400626B0A43DA62DA6A22F47061226B0A438B
:10170400DA624FF0806393FAA3F3B3FA83F39B0096
:1017140003F1844303F5840301221A60FEF7C4FD38
:10172400054605E0FEF7C0FD401B642800F20C816D
:101734004FF0006393FAA3F32E4B1A684FF0006343
:1017440093FAA3F3B3FA83F303F01F0322FA03F328
:1017540013F0010FE6D02EE0264AD36A23F4803337
:10176400D3624FF0806393FAA3F3B3FA83F39B003D
:1017740003F1844303F5840300221A60FEF794FD09
:10178400054605E0FEF790FD401B642800F2DE806C
:101794004FF0006393FAA3F3164B1A684FF00063FB
:1017A40093FAA3F3B3FA83F303F01F0322FA03F3C8
:1017B40013F0010FE6D1236A002B00F0C9800D4A13
:1017C400526802F00C02082A00F0C480022B74D183
:1017D4004FF0807393FAA3F3B3FA83F39B0003F1FE
:1017E400844303F5840300221A60FEF75DFD054679
:1017F4000AE000BF0010024000700040FEF754FDF4
:10180400401B022800F2A8804FF0007393FAA3F360
:10181400554B1A684FF0007393FAA3F3B3FA83F3AA
:1018240003F01F0322FA03F313F0010FE6D1636AF6
:10183400B3F5803F0DD103F1804303F58833D96AB2
:1018440062680A43DA62DA6A22F00F01E2680A4344
:10185400DA624548436823F47411636AA26A134345
:101864000B4343604FF0807393FAA3F3B3FA83F30B
:101874009B0003F1844303F5840301221A60FEF7FD
:1018840013FD044604E0FEF70FFD001B022865D893
:101894004FF0007393FAA3F3334B1A684FF00073BD
:1018A40093FAA3F3B3FA83F303F01F0322FA03F3C7
:1018B40013F0010FE7D0002053E04FF0807393FA48
:1018C400A3F3B3FA83F39B0003F1844303F5840386
:1018D40000221A60FEF7E8FC044604E0FEF7E4FC8C
:1018E400001B02283CD84FF0007393FAA3F31E4B5D
:1018F4001A684FF0007393FAA3F3B3FA83F303F077
:101904001F0322FA03F313F0010FE7D1002028E0AC
:10191400012026E0032024E0032022E0012020E02F
:1019240003201EE003201CE003201AE0032018E03B
:10193400032016E0032014E0032012E0012010E04D
:1019440001200EE003200CE003200AE0032008E05D
:10195400002006E0012004E0032002E0032000E070
:10196400032003B030BD00BF0010024010B489B0A2
:101974003A4B05AC186859689A6807C401AC53F827
:101984000C0F59689A68DB680FC4354B5B6803F029
:101994000C02082A5ED103F470114FF4701292FA0B
:1019A400A2F2B2FA82F221FA02F208A90A4412F867
:1019B4000C1C13F4803F49D0294CE36A03F00F0256
:1019C4000F2393FAA3F3B3FA83F322FA03F308AAD7
:1019D400134413F81C0CE36A13F4803F20D0E36A29
:1019E40003F0F002F02393FAA3F3B3FA83F322FA99
:1019F40003F30133E46A04F470624FF4706494FAFC
:101A0400A4F4B4FA84F422FA04F40234154AB2FBBE
:101A1400F3F303FB04F3B3FBF0F000FB01F004E089
:101A2400104BB3FBF0F000FB01F04FF4701393FA8A
:101A3400A3F3B3FA83F24FF45013D34008AA134428
:101A440013F80C3C994206D1400804E0064800FB18
:101A540001F000E0034809B010BC7047EC670008CF
:101A64000010024000127A0000093D0070B5744B6A
:101A74001B6803F007038B420BD2714A136823F0EF
:101A840007030B431360136803F00703994240F004
:101A9400C680036813F0020F06D06A4C636823F013
:101AA400F0028368134363600D460446036813F031
:101AB400010F75D04268012A13D14FF4003393FA11
:101AC400A3F3604B19684FF4003393FAA3F3B3FA0A
:101AD40083F303F01F0321FA03F313F0010F27D15B
:101AE4009FE0022A13D14FF0007393FAA3F3554BEE
:101AF40019684FF0007393FAA3F3B3FA83F303F076
:101B04001F0321FA03F313F0010F11D18BE0022319
:101B140093FAA3F34B4B1968022393FAA3F3B3FA92
:101B240083F303F01F0321FA03F313F0010F7CD0B6
:101B340044494B6823F0030313434B60FEF7B4FBA3
:101B440006466368012B0ED106E0FEF7ADFB801B51
:101B540041F2883398426AD83A4B5B6803F00C032D
:101B6400042BF2D11CE0022B15D106E0FEF79CFBFE
:101B7400801B41F2883398425BD8324B5B6803F098
:101B84000C03082BF2D10BE0FEF78EFB801B41F215
:101B9400883398424FD82B4B5B6813F00C0FF3D16A
:101BA400274B1B6803F007039D420AD2244A13689B
:101BB40023F007032B431360136803F007039D42CC
:101BC4003BD1236813F0040F06D01E494B6823F45D
:101BD400E062E36813434B60236813F0080F07D0F7
:101BE400184A536823F46053216943EAC1035360DC
:101BF400FFF7BCFE134B5B6803F0F002F02393FA8B
:101C0400A3F3B3FA83F322FA03F30F4AD35CD84065
:101C14000E4B18600F20FEF719FB002070BD012049
:101C240070BD012070BD012070BD012070BD032076
:101C340070BD032070BD032070BD012070BD00BFC6
:101C440000200240001002404C68000814010020EB
:101C5400014B1868704700BF1401002008B5FFF756
:101C6400F7FF084B5B6803F4E0624FF4E06393FA18
:101C7400A3F3B3FA83F322FA03F3034AD35CD84001
:101C840008BD00BF001002405C68000808B5FFF7FB
:101C9400DFFF084B5B6803F460524FF4605393FA20
:101CA400A3F3B3FA83F322FA03F3034AD35CD840D1
:101CB40008BD00BF001002405C680008F0B583B0A6
:101CC4000446036813F0010F71D0864BDA6942F0C1
:101CD4008052DA61DB6903F080530193019B824AED
:101CE400136843F480731360FEF7DEFA054605E0DB
:101CF400FEF7DAFA401B642800F2E7807A4B1B688F
:101D040013F4807FF4D0774B1B6A13F4407347D0ED
:101D1400626802F44072934242D07248016A21F42C
:101D240040764FF4803393FAA3F2B2FA82F26F4D05
:101D3400012745F8227093FAA3F3B3FA83F3002240
:101D440045F82320066211F0010F29D0FEF7ACFA02
:101D5400054607E0FEF7A8FA401B41F28833984293
:101D640000F2B580022393FAA3F293FAA3F3B3FA31
:101D740083F35B0943F00203DBB2022B02D1594B1C
:101D84001A6A01E0574B5A6A022393FAA3F3B3FA8F
:101D940083F303F01F0322FA03F313F0010FD9D0E6
:101DA40050490B6A23F44072636813430B6223683F
:101DB40013F0020F06D04B494B6823F44042A3684A
:101DC40013434B60236813F0040F06D04549CB6AD4
:101DD40023F40032E3681343CB62236813F0080F43
:101DE40006D04049CB6A23F4802223691343CB6293
:101DF4003C4BDB6A13F4003F06D13A4BDB6A13F425
:101E0400802F03D1002302E0012300E00123002BF3
:101E14004ED0344B1B6813F0805F42D1314B1B68AA
:101E240013F0806F06D02F4BDB6A03F0F003A26936
:101E340093424ED12B4BDA6A22F0F001A2690A4395
:101E4400DA62DA6A22F4704162690A43DA624FF0B4
:101E5400805393FAA3F3B3FA83F39B0003F184430F
:101E640003F5840301221A60FEF71EFA054604E016
:101E7400FEF71AFA401B64282DD84FF0005393FA4A
:101E8400A3F3184B1A684FF0005393FAA3F3B3FA71
:101E940083F303F01F0322FA03F313F0010FE7D0D7
:101EA40006E0104BDB6A03F470436269934214D179
:101EB400236813F0100F12D00A494B6823F48002F0
:101EC400E36913434B6000200AE0032008E0032089
:101ED40006E0012004E0032002E0012000E00020ED
:101EE40003B0F0BD00100240007000400004424204
:101EF40030B589B00546974B05AC186859689A689F
:101F040007C401AC53F80C0F59689A68DB680FC416
:101F1400681E0F2800F20A81DFE810F0D900F500EE
:101F240008018100080108010801AD000801080149
:101F3400080108010801080108011000864B5968CE
:101F44001B6813F0807F00F0F38001F470124FF4EB
:101F5400701393FAA3F3B3FA83F322FA03F308AAF0
:101F6400134413F80C4C11F4803F49D07A49CB6ADE
:101F740003F00F020F2393FAA3F3B3FA83F322FAC5
:101F840003F308AA134413F81C0CCB6A13F4803F20
:101F940020D0CB6A03F0F002F02393FAA3F3B3FA50
:101FA40083F322FA03F30133C96A01F470624FF434
:101FB400706191FAA1F1B1FA81F122FA01F10231D1
:101FC400664AB2FBF3F303FB01F3B3FBF0F000FB4F
:101FD40004F004E0614BB3FBF0F000FB04F04FF4B9
:101FE400701393FAA3F3B3FA83F24FF45013D3406C
:101FF40008AA134413F80C3C9C4204D1400802E0A4
:10200400574800FB04F0544B5B6813F4800F40F016
:102014009F804000534BA3FB0030400898E04E4B98
:10202400DB6A13F4003F02D1FFF7A0FC90E04A4BB7
:102034001B6813F0805F7DD04748C36A03F0F00249
:10204400F02393FAA3F3B3FA83F322FA03F3591CAC
:10205400C26A02F470424FF4704090FAA0F0B0FAF1
:1020640080F022FA00F002303C4BB3FBF1F303FBA7
:1020740000F040006CE0384BDB6A13F4802F02D18F
:10208400FFF774FC64E0344B1B6813F0805F53D09B
:102094003148C36A03F0F002F02393FAA3F3B3FACE
:1020A40083F322FA03F3591CC26A02F470424FF418
:1020B400704090FAA0F0B0FA80F022FA00F00230FA
:1020C400264BB3FBF1F303FB00F0400040E0224B4E
:1020D4001B6A40F202321A40B2F5817F2ED003F41B
:1020E4004073B3F5007F04D11B4A526A12F0020F09
:1020F40027D1B3F5407F27D1174B1B6813F4003F5A
:1021040024D1002024E0FFF7C1FD134B5B6803F4E6
:1021140040424FF4804393FAA3F3B3FA83F322FAD1
:1021240003F301335B00B0FBF3F011E000200FE098
:1021340000200DE000200BE0002009E04FF40040F7
:1021440006E049F6404003E0002001E04FF224405D
:1021540009B030BD086800080010024000127A007F
:1021640000093D00ABAAAAAA30B4026891698DB2F5
:10217400D369906984B2A54204D0D3699BB243EA7F
:10218400004002E09BB243EA014030BC704700BF0C
:102194000368186A5B6A9BB243EA0040704700BF59
:1021A400030903EB83035A0000F00F001044C0B28C
:1021B400704700BF10B500F5FA64022922D801EB7C
:1021C4004103C1EBC301204B83FB01E3C917C1EBFE
:1021D40063010A44131900F2CF7003EB90021B4B06
:1021E400A3FB0030A2EB501303EBD01304331848C5
:1021F400A3FB0001581A01EB50008008C0EBC0009B
:10220400181A1FE001EB4103C1EBC3010E4880FB28
:102214000130C917C1EB60010A44131903EB94029E
:102224000A4BA3FB0434A2EB541303EBD413023381
:102234000748A3FB0001581A01EB50008008C0EBCB
:10224400C000181AC0B210BD398EE3381F85EB5197
:102254002549922438B50446FEF726F8054605E0DC
:10226400FEF722F8401BB0F57A7F0AD823685A6833
:1022740012F0200FF4D05A6842F010025A60002085
:1022840038BD032038BD00BF38B504460268536822
:1022940023F010035360FEF707F8054605E0FEF748
:1022A40003F8401BB0F57A7F06D823685B6813F007
:1022B400200FF4D0002038BD032038BD38B50546C2
:1022C4000C46FFF7C7FF50B92B68220C9A612B68A4
:1022D400A4B2DC612846FFF7D7FF10B938BD01204E
:1022E40038BD012038BD00BF38B505460C46FFF7A0
:1022F400B1FF50B92B68220C1A622B68A4B25C623D
:102304002846FFF7C1FF10B938BD012038BD0120B0
:1023140038BD00BF70B5002855D00446002954D0FC
:10232400037C012B53D00E46012303740223437410
:102334005AB90A784B78C3EB031399004FF46165DB
:1023440005FB0215B3781D4411E00878FFF728FF58
:102354004FF4616505FB00F57078FFF721FFC0EBD2
:10236400001083001D44B078FFF71AFF0544294686
:102374002046FFF7A3FF064628B104236374002315
:102384002374012624E02268536823F00503536074
:102394002046FFF7FDFEB0F1FF3F0FD085420DD977
:1023A40000F5A83101F5C0712046FFF79DFF28B163
:1023B4000423637400232374012609E00123637456
:1023C4000023237404E0012602E0012600E0022633
:1023D400304670BD00285CD038B5044600295AD078
:1023E400037C012B59D00D4601230374022343744B
:1023F40032B9CB78C3734B7843738B7883730BE018
:10240400C878FFF7CDFEE0736878FFF7C9FE607304
:10241400A878FFF7C5FEA073A27B617BE07BFFF782
:10242400C9FE207328702046FFF79EFE1C4BA3FBB9
:102434000023B3F5484F27D31A4DA5FB00352B0CC9
:10244400194D05FB130529462046FFF737FF28B130
:102454000423637400232374012038BD2046FFF74E
:1024640097FEB0F1FF3F0FD085420DD900F5A8319A
:1024740001F5C0712046FFF737FF28B104236374C8
:1024840000232374012038BD0123637400202074C9
:1024940038BD01207047012038BD022038BD00BF7F
:1024A400C5B3A29107452EC280510100B8B138B519
:1024B40004460268536823F008035360FDF7F4FEF2
:1024C400054605E0FDF7F0FE401BB0F57A7F08D81D
:1024D40023685B6813F0080FF4D0002038BD012096
:1024E4007047032038BD00BF002859D010B50446FA
:1024F400437C13F0FF0F03D10023037403F0BAFCF1
:10250400022363742046FFF7D1FF18B104236374D8
:10251400012348E02046FFF79DFE18B104236374AD
:10252400012340E02268536823F007035360A36843
:1025340023B11E4A136B23F0010313631B49CB6AB7
:1025440023F46072A3681343CB626068B0F1FF3F69
:1025540008D10120FFF7CCFC18B9042363740123CC
:1025640021E001382268936823F00F0343EA104303
:1025740093602268D3681B0C1B0480B21843D0609C
:102584002046FFF781FE034618B104236374012338
:1025940009E00022E27301226273A273627402E012
:1025A400012318467047184610BD00BF006C004058
:1025B400890001F1804101F5D84192B20A60704767
:1025C400890001F1804101F5D841086880B2704763
:1025D40000283CD010B5044690F8513013F0FF0F9A
:1025E40001D103F06DFC022384F851302268136892
:1025F40023F04003136021686268A3681A43E36808
:102604001A4323691A4363691A43A36903F40073E1
:102614001343E2691343226A1343A26A1A430A600A
:102624002168638B03F00402636A13434B602368DD
:10263400E26A1A612268D36923F40063D36100203B
:10264400044B18706065012384F8513010BD0120DB
:10265400704700BF7C01002090F83930DBB2122BA8
:1026640001D0322B2AD18368B3F5805F0FD1036A7E
:1026740002681B88C3F30803536003691BB9036A28
:102684000233036209E0036A0133036205E002686E
:10269400036A591C01621B785360C38C013B9BB2D3
:1026A400C3846BB90268D36823F08003D3600268E3
:1026B400D36843F04003D360002070470220704782
:1026C400002070472DE9F843814601680B6923F423
:1026D4004052C36813430B6181680369194343691A
:1026E40019430068C26822F4B05323F00C030B436F
:1026F400C360D9F800104B6923F44072D9F818303C
:1027040013434B61D9F800505B4B9D4259D1FFF7FD
:10271400BDFA00EB800000EB8000D9F80440A4006F
:10272400B0FBF4F4554EA6FB043464092401FFF70E
:10273400ADFA00EB800000EB8000D9F804309B0078
:10274400B0FBF3F7FFF7A2FA00EB800000EB800088
:10275400D9F804309B00B0FBF3F3A6FB03235B0919
:102764004FF0640808FB13731B013233A6FB0323E9
:102774005B0903F0F0031C44FFF788FA00EB8000C8
:1027840000EB8000D9F804309B00B0FBF3F7FFF7AF
:102794007DFA00EB800000EB8000D9F804309B0048
:1027A400B0FBF3F3A6FB03235B0908FB13731B01C4
:1027B4003233A6FB0323C3F343131C44AC60BDE8CC
:1027C400F883FFF74BFA00EB800000EB8000D9F8A8
:1027D4000440A400B0FBF4F4284EA6FB04346409BE
:1027E4002401FFF73BFA00EB800000EB8000D9F8EE
:1027F40004309B00B0FBF3F7FFF730FA00EB8000E6
:1028040000EB8000D9F804309B00B0FBF3F3A6FB87
:1028140003235B094FF0640808FB13731B01323375
:10282400A6FB03235B0903F0F0031C44FFF716FA2D
:1028340000EB800000EB8000D9F804309B00B0FB73
:10284400F3F7FFF70BFA00EB800000EB8000D9F8F8
:1028540004309B00B0FBF3F3A6FB03235B0908FBE6
:1028640013731B013233A6FB0323C3F343131C442A
:10287400AC60BDE8F88300BF003801401F85EB5110
:102884002DE9F04105460E4690461C46FDF70CFD29
:102894000746B8F1000F26D053E0B4F1FF3F22D031
:1028A40024B1FDF701FDC01B84421CD22A68D36801
:1028B40023F08003D3602A68D36823F02003D36015
:1028C4002A68D36823F48073D3602A68536923F099
:1028D40001035361012385F83930002385F838302A
:1028E4000320BDE8F0812B681B6836EA0303D4D1CA
:1028F4000020BDE8F081B4F1FF3F22D024B1FDF700
:10290400D3FCC01B84421CD22A68D36823F0800302
:10291400D3602A68D36823F02003D3602A68D3687D
:1029240023F48073D3602A68536923F0010353614D
:10293400012385F83930002385F838300320BDE8B9
:10294400F0812B681B6836EA0303D4D00020BDE86D
:10295400F08100BF58B310B5044690F8393013F035
:10296400FF0F04D1002380F8383003F0F3FA022378
:1029740084F839302268D36823F40053D3602046A6
:10298400FFF7A0FE2268136923F4904313612268C1
:10299400536923F02A0353612268D36843F4005334
:1029A400D3600020E063012384F8393010BD012096
:1029B400704700BF70B504460D461E4690F8393086
:1029C400DBB2012B01D0222B5AD1002D5AD0002A80
:1029D4005AD094F83830012B58D0012384F8383079
:1029E4000023E36394F83930DBB2222B03D1322382
:1029F40084F8393002E0122384F83930A284E28466
:102A040023E0013BE384A368B3F5805F12D133462E
:102A1400002280212046FFF733FF002838D12268A6
:102A24002B88C3F30803536023690BB902350CE008
:102A340001350AE03346002280212046FFF720FFBB
:102A440040BB23682A785A600135E38C002BD8D127
:102A54003346002240212046FFF712FF0346D8B92F
:102A640094F83920D2B2322A03D1222284F83920B0
:102A740002E0012284F83920002284F838200CE096
:102A840002230AE0012308E0012306E0022304E014
:102A9400032302E0032300E00323184670BD00BFB4
:102AA40090F83930DBB2012B01D0122B2FD1002941
:102AB4002FD0002A2FD090F83830012B2DD00123AD
:102AC40080F8383081628285C2850023C36390F820
:102AD4003930DBB2122B03D1322380F8393002E0D3
:102AE400222380F83930002380F838300168CA681E
:102AF40042F48072CA6001684A6942F001024A6184
:102B04000168CA6842F02002CA6018467047022071
:102B1400704701207047012070470220704700BFB2
:102B2400704700BF08B50268D36823F04003D36040
:102B340090F83930DBB2322B03D1222380F83930BC
:102B440002E0012380F83930FFF7EAFF002008BDD6
:102B540008B590F83930DBB2222B01D0322B4CD19E
:102B64008368B3F5805F13D1836A026942B902684E
:102B74005268C2F308021A80836A0233836218E03F
:102B840002685268D2B21A80836A0133836210E009
:102B9400036933B9836A5A1C8262026852681A70E4
:102BA40007E0826A531C836203685B6803F07F0357
:102BB4001370C38D013B9BB2C38503BB0268D3680A
:102BC40023F02003D36090F83930DBB2322B03D1E9
:102BD400122380F839300CE00268D36823F4807340
:102BE400D3600268536923F001035361012380F821
:102BF400393002F079FE002008BD022008BD002013
:102C040008BD00BF704700BF10B582B0044603681A
:102C14001968DA6811F0010F06D002F480721AB153
:102C2400C26B42F00102C26319685A6902F00102E0
:102C340011F0020F04D01AB1E16B41F00401E16319
:102C4400196811F0040F04D01AB1E16B41F00201CC
:102C5400E163196811F0080F04D01AB1E26B42F075
:102C64000802E2631A68DB6803F0200312F0200F05
:102C740003D013B12046FFF76BFF23681A68DB68A3
:102C840003F0800312F0800F03D013B12046FFF746
:102C9400E3FC23681A68DB6803F0400312F0400F7A
:102CA40003D013B12046FFF73DFFE36B5BB123680C
:102CB4001A6801925B680193019B012384F83930FF
:102CC4002046FFF79FFF02B010BD00BF84B038B5A7
:102CD400044605AD85E80E00C36843F04003C360B5
:102CE40000F03CFC4FF48033A3630020BDE838407F
:102CF40004B07047836843F0010383600020704789
:102D0400836823F0010383600020704708B5C3681B
:102D140023F0C043C360012904D1C36843F00053C6
:102D2400C36004E019B9C36843F08043C360322030
:102D3400FDF7C0FA002008BD84B0F8B5054607A821
:102D440080E80E00002306E003F1400205EB820256
:102D54000021516001330E2BF6D9AB6B43F40023F1
:102D6400AB632E460024C5F8004E05F50067D5F880
:102D74000038C5F800380321284600F08DF81021EA
:102D8400284600F063F8284600F074F83C617C6142
:102D94004FF0FF33BB61FC61234614E006EB4312A2
:102DA40002F51061D2F80009002804DA4FF09040CF
:102DB400C2F8000902E00020C2F8000900220A61FA
:102DC400FF228A60013307998B42E7D3002314E082
:102DD40006EB431202F53060D2F8004B002C04DA03
:102DE4004FF09044C2F8004B02E00024C2F8004BBC
:102DF40000220261FF22826001338B42E8D33B69E7
:102E040023F480733B610023AB616FF080436B61FB
:102E1400AB6943F01003AB61AA690B4B1343AB617D
:102E24000B9B1BB1AB6943F00803AB610D9B012BFA
:102E340005D1AB6943F0804343F00403AB61002048
:102E4400BDE8F84004B0704700383C80890141F087
:102E54002001016100230133054A934205D8026928
:102E640012F0200FF7D1002070470320704700BFF5
:102E7400400D03001023036100230133054A9342EC
:102E840005D8026912F0100FF7D100207047032013
:102E9400704700BF400D0300D0F800381943C0F854
:102EA40000180020704700BF30B44B780BB10A788B
:102EB400CA80CA78022A01D100220A71012B23D1C7
:102EC400D0F81C480B78012202FA03F39BB2234387
:102ED400C0F81C380D7800EB4510D0F8003913F415
:102EE400004F31D1D0F800398A68C2F30A04CA7895
:102EF40044EA824242EA8552134343F0805343F446
:102F04000043C0F800391FE0D0F81C280D780123D5
:102F1400AB4042EA0343C0F81C380B7800EB431083
:102F2400D0F8003B13F4004F0ED1D0F8003B8A6870
:102F3400C2F30A02C97842EA8142134343F0805340
:102F440043F40043C0F8003B002030BC704700BF8E
:102F540030B44B78012B1CD1D0F83C580A7803FAD2
:102F640002F292B225EA0202C0F83C28D0F81C28EA
:102F74000D78AB409BB222EA0303C0F81C380B78EF
:102F840000EB4310D0F8003923F40043C0F80039B3
:102F94001AE0D0F83C580C78012202FA04F425EA2D
:102FA4000444C0F83C48D0F81C480D78AA4024EAF0
:102FB4000242C0F81C280B7800EB4310D0F8003B09
:102FC40023F40043C0F8003B002030BC704700BF2E
:102FD40038B54B78012B40F09F804B69EBB90B78E7
:102FE40000EB4313D3F8102922F0FF5222F4C0124D
:102FF400C3F810290B7800EB4313D3F8102942F4DB
:103004000022C3F810290B7800EB4313D3F81029DE
:10301400D20CD204C3F8102944E00B7800EB43131C
:10302400D3F81029D20CD204C3F810290B7800EB82
:103034004313D3F8102922F0FF5222F4C012C3F82C
:1030440010290A7800EB4212D2F810594B698C68A7
:103054002344013BB3FBF4F3674C04EAC3432B431F
:10306400C2F810390B7800EB4313D3F810494A69BE
:10307400C2F312022243C3F81029CB78012B11D1D9
:103084000B7800EB4313D3F8102922F0C042C3F8A5
:1030940010290B7800EB4313D3F8102942F00052A7
:1030A400C3F81029CB78012B09D04B693BB1D0F878
:1030B40034280D780123AB401343C0F83438CB785F
:1030C400012B17D1D0F8083813F4807F09D10B787D
:1030D40000EB4313D3F8002942F00052C3F800294F
:1030E40008E00B7800EB4313D3F8002942F0805238
:1030F400C3F800290B7800EB4313D3F8002942F0FE
:103104000442C3F80029CB78012B72D18B8A0A7848
:10311400C96800F011F96CE00B7800EB4313D3F8A5
:10312400102BD20CD204C3F8102B0B7800EB4313F2
:10313400D3F8102B22F0FF5222F4C012C3F8102B44
:103144004B69A3B90B7800EB4313D3F8104B8A688F
:10315400C2F312022243C3F8102B0B7800EB431383
:10316400D3F8102B42F40022C3F8102B1DE08A6818
:103174001344013BB3FBF2F30A7800EB4212D2F89A
:10318400105B1D4C04EAC3442C43C2F8104B0C786A
:1031940000EB4414D4F8105B8A689BB202FB03F280
:1031A400C2F312022A43C4F8102BCB78012B17D197
:1031B400D0F8083813F4807F09D10B7800EB43135F
:1031C400D3F8002B42F00052C3F8002B08E00B7830
:1031D40000EB4313D3F8002B42F08052C3F8002BCA
:1031E4000B7800EB4310D0F8003B43F00443C0F8E5
:1031F400003B002038BD00BF0000F81F30B44B78FE
:10320400012B60D14B69EBB90B7800EB4313D3F876
:10321400102922F0FF5222F4C012C3F810290B78AF
:1032240000EB4313D3F8102942F40022C3F8102909
:103234000B7800EB4313D3F81029D20CD204C3F853
:1032440010292CE00B7800EB4313D3F81029D20C8F
:10325400D204C3F810290B7800EB4313D3F81029D8
:1032640022F0FF5222F4C012C3F810294A698B6875
:103274009A4200D94B610B7800EB4313D3F8102921
:1032840042F40022C3F810290B7800EB4313D3F85F
:1032940010494A69C2F312022243C3F810294B6948
:1032A4003BB1D0F834280D780123AB401343C0F868
:1032B40034380B7800EB4310D0F8003943F0044362
:1032C400C0F8003934E00B7800EB4313D3F8102B2B
:1032D400D20CD204C3F8102B0B7800EB4313D3F8B1
:1032E400102B22F0FF5222F4C012C3F8102B4B69AA
:1032F4000BB18B684B610B7800EB4313D3F8102BA5
:1033040042F40022C3F8102B0B7800EB4313D3F8DC
:10331400104B8A68C2F312022243C3F8102B0B78B5
:1033240000EB4310D0F8003B43F00443C0F8003BEB
:10333400002030BC704700BF70B403339B100025DD
:1033440007E000EB023404F5805451F8046B266066
:1033540001359D42F5D3002070BC704710B4033290
:103364009210002305E000F58054246841F8044BD2
:1033740001339342F7D3084610BC70474B78012BB6
:1033840016D10B7800EB4313D3F80029002A05DB90
:10339400D3F8002922F08042C3F800290B7800EB0F
:1033A4004310D0F8003943F40013C0F8003915E095
:1033B4000B7800EB4313D3F8002B002A05DBD3F87A
:1033C400002B22F08042C3F8002B0B7800EB431053
:1033D400D0F8003B43F40013C0F8003B00207047D2
:1033E4004B78012B17D10B7800EB4313D3F800294A
:1033F40022F40012C3F80029CB78023BDBB2012B84
:1034040020D80B7800EB4310D0F8003943F08053F8
:10341400C0F8003916E00B7800EB4313D3F8002B07
:1034240022F40012C3F8002BCB78023BDBB2012B51
:1034340008D80B7800EB4310D0F8003B43F08053DE
:10344400C0F8003B00207047D0F8003823F4FE6336
:10345400C0F80038D0F80038090101F4FE610B43CC
:10346400C0F800380020704708B5D0F8043823F0BD
:103474000203C0F804380320FCF71CFF002008BD39
:1034840008B5D0F8043843F00203C0F80438032028
:10349400FCF710FF002008BD4269806910407047A6
:1034A40000F50063D0F81808DB691840000C704779
:1034B40000F50063D0F81808DB69184080B2704743
:1034C40000EB4111D1F8082B00F500604069104071
:1034D400704700BF10B4D0F81048D0F83438CB404F
:1034E400DB01DBB2234300EB411000F51060806880
:1034F400184010BC704700BF406900F001007047DD
:10350400D0F8003923F4FF6323F00703C0F800392F
:1035140000F500639A6802F00602042A05D1D0F887
:10352400002942F00302C0F800295A6842F480726C
:103534005A600020704700BF00F530630020186116
:103544001A6942F400221A611A6942F018021A61D7
:103554001A6942F0C0421A61704700BF80B485B056
:1035640000AF78600023FB60FB680133FB60FB68FD
:10357400124A934201D903231BE07B681B69002B89
:10358400F2DA0023FB607B681B6943F001027B686D
:103594001A61FB680133FB60FB68084A934201D956
:1035A400032306E07B681B6903F00103002BF0D1C1
:1035B400002318461437BD4680BC7047400D0300F5
:1035C400D0F818321BB10020C3F81402704702204F
:1035D400704700BF10B5D0F81842D0F81C325BB168
:1035E40094F80002FF2807D09B6894F80122214632
:1035F4009847FF2384F80032002010BD4323038042
:1036040000487047000000204323038000487047AF
:1036140044000020432303800048704788000020B2
:103624000A23038000487047CC00002038B50446C4
:10363400D0F8185202F0AAFFC5F80C02D4F81832D8
:103644004BB1D4F81C32DB6805F50371D5F80402DC
:103654009847002038BD022038BD00BF70B505462C
:103664000C46D0F818620B7813F0600224D0202A9C
:1036740029D1CA88CAB113F0800F0BD0D0F81C32FC
:103684009B68314660789847E2883146284600F0C6
:1036940099FC18E04B7886F80032CB8886F8013222
:1036A400CA88314600F0A4FC0DE0D0F81C329B68B7
:1036B40000224878984706E04B780A2B03D1012270
:1036C400024900F07FFC002070BD00BF7D01002096
:1036D40010B50446812102F0E1FE0121204602F0EA
:1036E400DDFE8221204602F0D9FED4F8183253B10F
:1036F400D4F81C325B689847D4F8180202F050FFE3
:103704000023C4F81832002010BD00BF38B50446A9
:10371400037C6BB94FF400730222812102F0ACFEEA
:103724004FF4007302220121204602F0A5FE0AE0B4
:1037340040230222812102F09FFE40230222012124
:10374400204602F099FE082303228221204602F03B
:1037540093FE4FF4077002F01FFF0546C4F81802E9
:10376400E8B1D4F81C321B6898470023C5F814321A
:10377400C5F81832237C4BB94FF40073D5F80422F2
:103784000121204602F0F2FE002038BD4023D5F886
:1037940004220121204602F0E9FE002038BD012068
:1037A40038BD00BF19B1C0F81C12002070470220B8
:1037B400704700BFD0F81832C3F80812C3F81022BB
:1037C40000207047D0F81832C3F804120020704764
:1037D400D0F818227AB108B5D2F814326BB90123A3
:1037E400C2F81432B2F81032D2F80822812102F061
:1037F400ADFE002008BD02207047012008BD00BFB7
:10380400D0F818229AB108B5037C43B94FF4007379
:10381400D2F80422012102F0A9FE002008BD4023B1
:10382400D2F80422012102F0A1FE002008BD0220EA
:10383400704700BF98B108B50346D0F8140210B120
:103844000020C3F8140209B1C3F81012184601236A
:1038540080F8FC31027002F0CFFD002008BD022088
:10386400704700BF19B1C0F814120020704702203D
:10387400704700BF08B502F0EFFD002008BD00BF8F
:1038840008B5D0F8143223B11B68984718B1022048
:1038940008BD022008BD002008BD00BF08B5D0F84F
:1038A40014325B689847002008BD00BF38B5044651
:1038B40000F50275284600F01DF90123C4F8F4311F
:1038C400B4F80E32C4F8F83194F8081201F01F036A
:1038D400012B08D013B1022B0AD00EE02946204652
:1038E40000F084FA0EE02946204600F0A3FA09E02D
:1038F4002946204600F0BAFA04E001F0800120468F
:1039040002F0DCFD002038BD10B5044611BB13469F
:10391400D0F8F421032A28D1D0F80C11D0F81021C2
:1039240091420AD9891AC0F80C118A4228BF0A4662
:1039340092B2194600F06CFB17E0D0F814321B6900
:1039440023B190F8FC21032A00D19847204600F0C7
:1039540067FB0AE00A46D0F814329B692BB190F851
:10396400FC11032901D111469847002010BD00BF66
:1039740010B50446002943D11346D0F8F421022A95
:1039840036D1C169026A91420CD98A1AC26192B2D3
:10399400194600F025FB00231A461946204602F07A
:1039A400E5FD25E08169B1FBF2F302FB131393B942
:1039B4008A4210D8D0F8F83199420CD2002211462C
:1039C40000F00EFB0021C4F8F8110B460A4620460D
:1039D40002F0CCFD0CE0D4F81432DB682BB194F87F
:1039E400FC21032A01D120469847204600F024FBFD
:1039F40094F80032012B0ED1002384F800320AE03F
:103A04000A46D0F814325B692BB190F8FC110329F3
:103A140001D111469847002010BD00BF38B50446B7
:103A240040230022114602F027FD4025C4F810511E
:103A34002B4600228021204602F01EFD2562012330
:103A440084F8FC31D4F818322BB1D4F814325B6802
:103A5400217920469847002038BD00BF017400201A
:103A6400704700BF90F8FC3180F8FD31042380F8E2
:103A7400FC310020704700BF90F8FD3180F8FC3124
:103A84000020704708B590F8FC31032B04D1D0F81E
:103A94001432DB6903B19847002008BD0020704749
:103AA400002070470020704708B5012280F8FC21EF
:103AB400D0F81422526801799047002008BD00BF55
:103AC4000346002002E00130C0B201331A78002A14
:103AD400F9D170474B88012B0BD110B50446C0F8BF
:103AE4000432D0F814329B689847204600F098FAC4
:103AF40010BD70470B7803704B7843708B78CA788D
:103B040003EB022343800B794A7903EB022383807E
:103B14008B79CA7903EB0223C380704710B504463E
:103B2400802102F0CBFC0021204602F0C7FC10BD2E
:103B340030B583B004460D464A88130A013B062B70
:103B440079D8DFE803F0040C2078785C6900D0F8B9
:103B540010321B680DF10601007C98476FE0037C6E
:103B640043B9D0F814329B6A0DF10600984702233A
:103B7400437064E0D0F81432DB6A0DF10600984714
:103B8400022343705BE0D2B2052A34D8DFE802F0A6
:103B9400030B131B232BD0F810325B680DF10601C5
:103BA400007C98474BE0D0F810329B680DF1060179
:103BB400007C984743E0D0F81032DB680DF1060131
:103BC400007C98473BE0D0F810321B690DF10601E8
:103BD400007C984733E0D0F810325B690DF10601A0
:103BE400007C98472BE0D0F810329B690DF1060158
:103BF400007C984723E02946FFF790FF2DE0037CE3
:103C040033B9D0F814325B6B0DF10600984716E017
:103C14002946FFF783FF20E0037C43B9D0F8143230
:103C24001B6B0DF1060098470723437007E02946F4
:103C3400FFF774FF11E02946FFF770FF0DE0BDF8B0
:103C4400063053B1EA8842B19A4228BF1A46ADF809
:103C540006200146204600F0B5F903B030BD00BF90
:103C640038B504468B88E3B9CB88D3B98D7805F091
:103C74007F0590F8FC31032B02D1FFF74FFF38BDCD
:103C840080F8FE51294602F051FC204600F0C8F9A4
:103C94001DB1022384F8FC3138BD012384F8FC31C2
:103CA40038BD2046FFF73AFF38BD00BF38B504469B
:103CB4000D468978264B1970012903D92946FFF747
:103CC4002DFF38BD90F8FC31022B02D0032B15D008
:103CD40039E081B14160032380F8FC31FFF7D0FD66
:103CE400022804D129462046FFF718FF38BD204694
:103CF40000F096F938BD00F093F938BD49B90223B4
:103D040080F8FC314160FFF7C9FD204600F088F9D6
:103D140038BD4368994213D0D9B2FFF7BFFD0C4BAD
:103D2400197861602046FFF7ABFD022804D12946CB
:103D34002046FFF7F3FE38BD204600F071F938BD88
:103D440000F06EF938BD2946FFF7E8FE38BD00BF24
:103D54007E01002008B5CB88012B02D0FFF7DEFEE0
:103D640008BD90F8FC31022B02D0032B08D00CE0E4
:103D74000146002341F8083F012200F023F908BD61
:103D84000122011D00F01EF908BDFFF7C7FE08BDA2
:103D940008B590F8FC31023B012B0CD80123C36019
:103DA400D0F804320BB10323C360022200F10C01EA
:103DB40000F008F908BDFFF7B1FE08BD10B50446D0
:103DC40090F8FC31023B012B0DD84B88012B0CD110
:103DD4000023C0F80432D0F814329B689847204678
:103DE40000F01EF910BDFFF799FE10BD08B54B7821
:103DF400092B1BD8DFE803F011171A141A08051A47
:103E04000E0BFFF795FE13E0FFF72AFF10E0FFF714
:103E14004DFF0DE0FFF79EFF0AE0FFF7B9FF07E053
:103E2400FFF758FE04E0FFF7C9FF01E0FFF776FE55
:103E3400002008BD38B504460D4690F8FC31032B2C
:103E44000FD10B79012B09D8D0F814329B6898470D
:103E5400EB8843B9204600F0E3F804E0FFF75EFE88
:103E640001E0FFF75BFE002038BD00BF38B5054612
:103E74000C468A880B7803F06003202B04D1D0F819
:103E840014329B6898477DE0D1B26378012B26D029
:103E9400002B48D0032B75D190F8FC31022B02D0B3
:103EA400032B07D017E000296CD080296AD002F0D8
:103EB40005FB67E0638823B919B1802901D002F0BA
:103EC400FDFAD5F814329B682146284698472846BF
:103ED40000F0A6F856E02146FFF720FE52E090F8E5
:103EE400FC31022B02D0032B07D018E0002949D063
:103EF400802947D002F0E2FA44E06388002B41D1E4
:103F040011F07F0F07D002F0E9FAD5F814329B685C
:103F1400214628469847284600F082F832E0214698
:103F2400FFF7FCFD2EE090F8FC31022B02D0032BAE
:103F340006D024E011F07F0F24D002F0BFFA21E074
:103F440012F0800F06D001F07F04013400EB04145A
:103F5400043405E001F07F04103400EB041404344D
:103F6400284602F0CBFA10B10123236001E00023BC
:103F7400236002222146284600F024F802E021466C
:103F8400FFF7CCFD002038BDD0B170B50D46164604
:103F94000446FFF795FD0130400080B23080287060
:103FA40003236B70022307E05A1CD2B20134E95494
:103FB4000233DBB20021A95421780029F4D170BD69
:103FC400704700BF10B513460222C0F8F421836184
:103FD400C3610A46002102F0B9FA002010BD00BFF7
:103FE40008B513460A46002102F0B0FA002008BDC5
:103FF40010B513460322C0F8F421C0F80831C0F804
:104004000C310A46002102F0B1FA002010BD00BFB5
:1040140008B513460A46002102F0A8FA002008BD9C
:1040240008B50423C0F8F43100231A46194602F0F7
:104034008DFA002008BD00BF08B50523C0F8F4318F
:1040440000231A46194602F091FA002008BD00BF69
:10405400842801D00330704700207047EFF30580B7
:10406400003018BF0120704708B500F0C1FD0020E2
:1040740008BD00BF08B5FFF7F1FF10B100F0F2FD75
:1040840008BD00F0E9FD08BDF0B587B00F464468EF
:1040940005680669B0F90800FFF7DAFF0023039307
:1040A400029305AB019300903B46B2B229462046E9
:1040B40000F016FD012801D1059800E0002007B0AA
:1040C400F0BD00BF08B508B90120FFE700F0CAFE43
:1040D400002008BD70B505464668142001F07AFA40
:1040E400044650B3033626F003062B688360C6608B
:1040F40000230361286801F06DFA6060C8B1286884
:1041040000FB06F001F066FA206028B909E0626855
:104114000021D154013300E000232A689342F6D3EE
:104124000BE0606801F0C8FA204601F0C5FA0024EB
:1041340003E0204601F0C0FA0024204670BD00BF11
:1041440070B50446FFF78AFF18B101F0F3F805468D
:1041540002E001F005F90025002211E0236913446F
:10416400994200D800236168C818C95C39B9012292
:1041740002702668E26802FB0366236104E00132F0
:10418400A1688A42EAD30026FFF768FF18B12846DF
:1041940001F000F901E001F001F9304670BD00BF03
:1041A400034698B1A1B10268914213D3891AC06839
:1041B400B1FBF0F200FB121272B9B1FBF0F19A6894
:1041C40091420BD25B68002058547047802070479E
:1041D400802070478020704780207047802070477F
:1041E40030B585B004460368019343680293002305
:1041F400039385680C2001F0EDF92860A368186822
:10420400E0B10460A3681D6800220421206800F066
:10421400C1F96860A3681D686B6823B9284601F07A
:104224004BFA00200AE001A8FFF754FFA860A36836
:104234001868836813B901F03FFA002005B030BD57
:1042440020B108B58068FFF77BFF08BD00207047E8
:1042540010B584B00191F8B1044600230393FFF72D
:10426400FDFE78B1002303AA01A9606800F050FAAA
:10427400012813D1039B9BB14FF080520B4B1A6062
:10428400002010E000231A4601A9606800F0AAF992
:10429400012807D0FF2006E0802004E0FF2002E090
:1042A400002000E0002004B010BD00BF04ED00E0D9
:1042B40070B584B00446029141B904AB802243F83E
:1042C400102D93E8070084E8070033E00D461646F6
:1042D40000230393B2F1FF3F02D00AB102B90126D1
:1042E400FFF7BCFE90B103AA01A9686800F002FBC5
:1042F400012802D12023009301E000230093039BB3
:10430400A3B14FF080520D4B1A600FE000233246E8
:1043140001A9686800F050FA012802D12023009313
:1043240004E00EB9002300E0402300939DE8070059
:1043340084E80700204604B070BD00BF04ED00E02F
:1043440020B108B58068FFF72BFF08BD80207047B7
:1043540008B500F0E9FE012801D001F053F808BDCA
:1043640000F1080343604FF0FF328260C3600361D1
:1043740000230360704700BF00230361704700BF40
:1043840043684B609A688A609A68516099600861D2
:10439400036801330360704730B40D68B5F1FF3F23
:1043A40001D1026907E000F1080200E01A465368EF
:1043B4001C68A542FAD253684B6099608A605160C8
:1043C400086103680133036030BC704703694268C5
:1043D400816891608268416851605A68904201D155
:1043E40082685A60002202611868013818607047B8
:1043F40010B5044600F0B4FFA26BE36B9A4201D1FE
:10440400012400E0002400F0C9FF204610BD00BFD5
:1044140010B5044600F0A4FFA36B0BB9012400E01F
:10442400002400F0BBFF204610BD00BF38B5044691
:104434001546026C3AB903685BBB406800F0DEFEC7
:10444400002363602CE06DB9806802F0AEF9A268C5
:10445400236C1344A360626893421CD32368A36053
:1044640000201DE0C06802F0A0F9236C5B42E26802
:104474001A44E26021688A4202D262681344E3600B
:10448400022D0AD1A36B53B1A36B013BA36300209C
:1044940006E0002004E0002002E0002000E000200C
:1044A400A36B0133A36338BD026C72B110B503462C
:1044B400C4681444C4604068844201D31868D86056
:1044C4000846D96802F071F910BD704710B504466A
:1044D40000F046FF0BE0636A63B104F1240000F0CE
:1044E40099FD08B100F018FEA36C013BA364A36C12
:1044F400002BF0DC4FF0FF33A36400F04FFF00F01B
:104504002FFF0BE0236963B104F1100000F082FD7A
:1045140008B100F001FE636C013B6364636C002B23
:10452400F0DC4FF0FF33636400F038FF10BD00BFD0
:1045340038B510B900F0FEFEFEE70D46044600F063
:104544000FFF2168E26B236C03FB02106060002004
:10455400A063A160013A02FB0313E3604FF0FF3351
:104564006364A36455B9236983B104F1100000F0B6
:1045740051FD01280AD100F0D1FE07E004F110003A
:10458400FFF7EEFE04F12400FFF7EAFE00F006FF59
:10459400012038BDF8B510B900F0CCFEFEE70D4699
:1045A4001746064619B101FB00F0013000E0002077
:1045B400543001F00FF8044668B10DB9206002E0F0
:1045C40000F154030360E663256401212046FFF7EC
:1045D400AFFF84F8507014B900F0ACFEFEE720463B
:1045E400F8BD00BFF0B585B0019210B900F0A2FE8D
:1045F400FEE70E461D46044619B9036C1BB9012398
:1046040002E0012300E0002313B900F093FEFEE76B
:10461400022D03D1E36B012B02D102E0012300E060
:10462400002313B900F086FEFEE700F07DFD18B903
:10463400019B1BB9012302E0012300E0002313B90D
:1046440000F078FEFEE7002700F08AFEA26BE36B21
:104654009A4201D3022D16D12A4631462046FFF74D
:10466400E5FE636A43B104F1240000F0D3FC0128A1
:1046740005D100F053FE02E008B100F04FFE00F057
:104684008DFE012042E0019B1BB900F087FE002053
:104694003CE01FB902A800F0FBFC012700F07EFEFD
:1046A40000F0D0FA00F05CFE636CB3F1FF3F01D17F
:1046B40000236364A36CB3F1FF3F01D10023A3641F
:1046C40000F06CFE01A902A800F0F2FCC0B920467B
:1046D400FFF78EFE70B1019904F1100000F068FC40
:1046E4002046FFF7F3FE00F04FFB0028ACD100F0AA
:1046F40015FEA9E72046FFF7E9FE00F045FBA3E716
:104704002046FFF7E3FE00F03FFB002005B0F0BDBC
:104714002DE9F04110B900F00DFEFEE7884616467B
:104724001D46044619B9036C1BB9012302E0012399
:1047340000E0002313B900F0FDFDFEE7022D03D1D4
:10474400E36B012B02D102E0012300E0002313B943
:1047540000F0F0FDFEE700F0C3FE00F0EBFD0746BD
:10476400A26BE36B9A4201D3022D18D12A4641462B
:104774002046FFF75BFEA36CB3F1FF3F0AD1636AE7
:104784007BB104F1240000F045FC60B16EB101245A
:1047940034600BE0A36C0133A364012406E000241D
:1047A40004E0012402E0012400E00124384600F082
:1047B400F1FD2046BDE8F081F0B585B0019210B955
:1047C40000F0B8FDFEE70D461F46044619B9036C18
:1047D4001BB9012302E0012300E0002313B900F018
:1047E400A9FDFEE700F0A0FC18B9019B1BB9012349
:1047F40002E0012300E0002313B900F09BFDFEE773
:10480400002600F0ADFDA36B33B3E66829462046CD
:10481400FFF74AFE97B9A36B013BA363236813B95F
:1048240000F03AFD6060236993B104F1100000F0D8
:10483400F1FB01280CD100F071FD09E0E660636A28
:1048440033B104F1240000F0E5FB08B100F066FD8B
:1048540000F0A4FD01204BE0019B1BB900F09EFD7C
:10486400002045E01EB902A800F012FC012600F069
:1048740095FD00F0E7F900F073FD636CB3F1FF3FC1
:1048840001D100236364A36CB3F1FF3F01D1002382
:10489400A36400F083FD01A902A800F009FC08BB91
:1048A4002046FFF7B5FDB8B1236833B900F058FDD1
:1048B400606800F049FC00F071FD019904F12400E6
:1048C40000F076FB2046FFF701FE00F05DFA0028B9
:1048D40097D100F023FD94E72046FFF7F7FD00F0A1
:1048E40053FA8EE72046FFF7F1FD00F04DFA002061
:1048F40005B0F0BDF8B510B900F01CFDFEE70F4699
:104904001646044619B9036C1BB9012302E00123BE
:1049140000E0002313B900F00DFDFEE700F0E0FD18
:1049240000F008FD0546A36BD3B139462046FFF7D6
:10493400BBFDA36B013BA363636CB3F1FF3F0AD1DF
:1049440023697BB104F1100000F064FB60B16EB127
:10495400012434600BE0636C01336364012406E0DA
:10496400002404E0012402E0012400E0012428469C
:1049740000F010FD2046F8BD094B1B681B680BB9FD
:10498400012300E0002323B14FF0FF32044B5A60AF
:104994007047034B1A68D268D26852685A607047ED
:1049A4008001002010B50446006B00F085FE20460F
:1049B40000F082FE10BD00BF70B506460C4619B962
:1049C400800000F007FE044654B15C2000F002FEB3
:1049D400054608B1046304E0204600F06DFE00E0E3
:1049E400002525B1B200A521286B01F0E9FE284677
:1049F40070BD00BF70B504461546002306E0C85CD0
:104A0400E21882F83400CA5C12B101330F2BF6D9D4
:104A1400002384F84330062D00D90625E562E564B9
:104A240000262665201DFFF7A7FC04F11800FFF7F8
:104A3400A3FC2461C5F10705A5616462666584F879
:104A4400586070BD70B5002406E01420114B00FBC3
:104A54000430FFF785FC0134062CF6D90E4C04F122
:104A6400BC063046FFF77CFC04F1D0052846FFF76E
:104A740077FC04F11C00FFF773FC04F1E400FFF77A
:104A84006FFC04F10800FFF76BFC2660C4F8F850D3
:104A940070BD00BFB00100208001002038B50F4B6D
:104AA400D3F8FC205060D3F80031984208D20B4B65
:104AB400D3F8F800D3F8FC100431FFF76DFC38BDCF
:104AC4000446064D2868D5F8FC100431FFF764FC51
:104AD4006B689C4200D26C6038BD00BF800100202E
:104AE4002DE9F04F83B00C9EDDF8348010B900F04E
:104AF40021FCFEE78B4617469A468146062E02D9CC
:104B040000F018FCFEE70E991046FFF755FF044627
:104B1400002856D0036B07F18045013D03EB850364
:104B240023F0070500970F9B32465946FFF762FFB3
:104B340052464946284600F0CFFB2060B8F1000FEA
:104B440001D0C8F8004000F00BFC284BD3F8042136
:104B54000132C3F80421D3F8FC304BB9234BC3F81A
:104B6400FC40D3F80431012B0FD1FFF76BFF0CE0AD
:104B74001E4BD3F8083143B91C4BD3F8FC30DB6A25
:104B84009E4202D3194BC3F8FC40184BD3F80C21B6
:104B94000132C3F80C216264E26A012505FA02F0CD
:104BA400D3F810110143C3F81011303302EB820221
:104BB4009000211D1844FFF7E3FB00F0EFFB2C46A7
:104BC40001E04FF0FF34012C0BD1084BD3F808312E
:104BD4003BB1064BD3F8FC30DB6A9E4201D900F0AE
:104BE4009DFB204603B0BDE8F08F00BF800100208C
:104BF40000B585B0002303930293019300938022B0
:104C04000D490E48FFF76CFF01280ED100F092FB0E
:104C14000B4B4FF0FF325A600122C3F808210022E7
:104C2400C3F8002100F014FC03E010B900F082FB8B
:104C3400FEE705B05DF804FB646800081D4F00083A
:104C440080010020034AD2F818310133C2F8183128
:104C5400704700BF80010020014BD3F8000170476A
:104C64008001002008B500F03BFC024BD3F80001A2
:104C740008BD00BF800100202DE9F041414BD3F86D
:104C84001831002B6DD13F4BD3F800210132C3F80A
:104C94000021D3F800719FB91B681B6813B100F0A1
:104CA40049FBFEE7374B1A68D3F8F8101960C3F8CC
:104CB400F820D3F81C210132C3F81C21FFF75CFE55
:104CC400304B5B689F4203D200243EE0012400E0A5
:104CD40000242C4B1B681B680BB9012300E0002344
:104CE40023B14FF0FF32274B5A602EE0254B1B684F
:104CF400DB68DD686B689F4202D2224A536024E07D
:104D040005F104084046FFF761FBAB6A1BB105F1EE
:104D14001800FFF75BFBEB6A012202FA03F1194E5C
:104D2400D6F810210A43C6F8102106F1300003EB2F
:104D340083039A0041461044FFF722FBEA6AD6F83F
:104D4400FC30DB6A9A42C1D2C3E70E49D1F8FC3089
:104D5400DB6A03EB83039A000A44136B012B08D824
:104D640008E0084AD2F820310133C2F82031002487
:104D740000E00124034BD3F8243103B1012420467D
:104D8400BDE8F0818001002070B5354BD3F81831AF
:104D940013B900F0CFFAFEE700F0E2FA304BD3F893
:104DA4001821013AC3F81821D3F81831002B4FD138
:104DB4002B4BD3F804313BBB00244CE0284CA36AB2
:104DC400DD6805F11800FFF701FB2E1D3046FFF7E3
:104DD400FDFAEB6A012202FA03F1D4F810210A4326
:104DE400C4F8102104F1300003EB83039A00314628
:104DF4001044FFF7C5FAEA6AD4F8FC30DB6A9A4239
:104E040002D30122C4F82421154BDB69002BD5D130
:104E1400134BD3F820316BB911E0FFF72DFF18B114
:104E240001220F4BC3F824210D4AD2F82031013B53
:104E3400C2F820310A4BD3F82031002BEDD1084BB6
:104E4400D3F82431012B05D100F068FA012402E0E3
:104E5400002400E0002400F0A1FA204670BD00BF49
:104E64008001002010B530B30446154BD3F8183137
:104E740013B100F05FFAFEE7FFF7E4FE104BD3F83E
:104E840000211444D3F8FC000430FFF79FFA60B902
:104E94000B4BD3F8FC20D16A012202FA01F1D3F8BA
:104EA400102122EA0102C3F810212046FFF7F6FD83
:104EB400FFF76AFF00E0002008B900F02FFA10BDE8
:104EC4008001002038B51FE0FFF7BCFE114BD3F87A
:104ED400E440FFF759FFBCB100F042FA0D4CD4F89E
:104EE400F030DD68281DFFF771FAD4F80431013B76
:104EF400C4F80431D4F81431013BC4F8143100F07F
:104F04004DFA2846FFF74EFD024BD3F81431002B1F
:104F1400DAD138BD8001002008B5FFF7D3FF034B79
:104F24001B6B012BF9D900F0F9F9F6E78001002099
:104F34001E4BD3F8183123B101221C4BC3F8242192
:104F4400704710B519490023C1F82431D1F8103144
:104F5400B3FA83F3DBB2C3F11F0303EB83008200D4
:104F64000A44126B12B900F0E5F9FEE70F48990004
:104F7400CC18A2000244546B646854633030194462
:104F84008A0008320244944206D1606803EB83012C
:104F94008A0006490A445063044903EB83039A00D8
:104FA4000A44536BDB68C1F8FC3010BD800100205B
:104FB40038B510B900F0BEF9FEE70C46144DD5F82B
:104FC400FC101831FFF7E8F9D5F8FC000430FFF7BE
:104FD400FDF958B9D5F8FC20D16A012202FA01F191
:104FE400D5F8102122EA0102C5F81021B4F1FF3FDF
:104FF40007D10748D0F8FC1004310830FFF7C0F996
:1050040038BD034BD3F800012044FFF747FD38BDFA
:105014008001002038B5C368DC6814B900F08AF94F
:10502400FEE704F118052846FFF7D0F9164BD3F82C
:105034001831B3B9251D2846FFF7C8F9E36A0121E1
:1050440001FA03F0104AD2F810110143C2F810110A
:10505400303203EB8303980029461044FFF790F99C
:1050640003E029460948FFF78BF9E26A064BD3F8B7
:10507400FC30DB6A9A4204D90120034BC3F82401B3
:1050840038BD002038BD00BF800100209C010020F5
:1050940008B510B900F04EF9FEE7044AD2F81C1125
:1050A4000160D2F80021426008BD00BF80010020E9
:1050B40038B510B900F03EF9FEE70D46044611B9C3
:1050C40000F038F9FEE700F04BF9124BD3F8001169
:1050D4002A68B2F1FF3F13D02068D3F81C319842FC
:1050E40002D0636899420DD26368C81A82420BD910
:1050F4005B1A13442B602046FFF7CAFF002404E028
:10510400002402E0012400E0012400F047F92046D5
:1051140038BD00BF800100200122024BC3F82421C6
:10512400704700BF80010020064BD3F808312BB133
:10513400044BD3F818311BB9022070470120704783
:105144000020704780010020002851D038B5024665
:10515400C36A2849D1F8FC10C96A8B4247D28169D5
:10516400002906DB2349D1F8FC10C96AC1F1070103
:105174008161506903EB830399001F4B19448842F2
:1051840001D1012300E0002363B31546141D20461A
:10519400FFF71CF980B9EA6A02EB82018B0015491A
:1051A4000B441B6B43B9012303FA02F2D1F810310B
:1051B40023EA0202C1F810210E48D0F8FC30DB6A61
:1051C400EB62012202FA03F1D0F810210A43C0F87D
:1051D4001021303003EB83039A0021461044FFF77B
:1051E400CFF838BD034BD3F8FC30DB6AD36238BD4B
:1051F400704700BF80010020B0010020002843D088
:1052040038B50446234BD3F8FC30984202D000F062
:1052140091F8FEE7036D13B900F08CF8FEE7013B4B
:105224000365C16AC26C914230D08BBB051D284610
:10523400FFF7CCF880B9E26A02EB82018B001549D2
:105244000B441B6B43B9012303FA02F2D1F810316A
:1052540023EA0203C1F81031E36CE362C3F10702ED
:10526400A261012404FA03F00A4AD2F8101101439E
:10527400C2F81011303203EB83039800294610441E
:10528400FFF77EF8204638BD00207047002038BD67
:10529400002038BD80010020064BD3F8FC302BB130
:1052A400044BD3F8FC20136D01331365014BD3F881
:1052B400FC0070478001002006480068006880F305
:1052C400088862B661B6BFF34F8FBFF36F8F00DFFC
:1052D40000BF000008ED00E04FF0807340F8043C8C
:1052E40040F8081C034B40F80C3C40F8202C403894
:1052F400704700BF49530008074B19680868B0E8B5
:10530400F00F80F30988BFF36F8F4FF0000080F334
:1053140011884EF00D0E70477C0200204FF0805231
:10532400034B1A60BFF34F8FBFF36F8F704700BFFB
:1053340004ED00E0EFF311804FF0500181F3118888
:105344007047002008B5054B1B68B3F1FF3F02D03E
:10535400FFF7F0FFFEE7FFF7EDFFFEE71001002087
:1053640008B5FFF7E7FF094A136801331360BFF379
:105374004F8FBFF36F8F012B07D1054B1B6813F0C1
:10538400FF0F02D0FFF7D6FFFEE708BD1001002093
:1053940004ED00E080F31188704700BF08B5074BA7
:1053A4001B6813B9FFF7C6FFFEE7013B034A13600E
:1053B40013B90020FFF7EEFF08BD00BF1001002065
:1053C400EFF30980BFF36F8F0D4B1A6820E9F00FDC
:1053D40010602DE908404FF0500080F31188FFF76A
:1053E400A7FD4FF0000080F31188BDE8084019685C
:1053F4000868B0E8F00F80F30988BFF36F8F704737
:105404007C02002008B5FFF795FFFFF735FC18B1C3
:105414004FF08052024B1A600020FFF7BBFF08BD1B
:1054240004ED00E0064B1B68064AA2FB03239B091C
:10543400013B054A13600722044B1A60704700BF02
:1054440014010020D34D621014E000E010E000E0ED
:1054540000B583B01E4B1A78D2B20192FF221A70A3
:105464001B78DBB28DF803309DF80330194A03F042
:10547400500313700723536009E0164A5368013B35
:1054840053609DF803305B00DBB28DF803309DF868
:10549400033013F0800FF0D10E4A53681B0203F45B
:1054A400E0635360019BDBB2094A13700A4B1A682C
:1054B40042F470021A601A6842F070421A60FFF7F0
:1054C400B1FF0022054B1A60FFF7F6FEFFF73AFF23
:1054D40000E400E0A802002020ED00E0100100201C
:1054E40008B5EFF305830F2B09D90B4A9B5CDBB29C
:1054F4000A4A1278934202D2FFF71CFFFEE7084BD8
:105504001B6803F4E063054A5268934202D9FFF72B
:1055140011FFFEE708BD00BFF0E300E0A802002091
:105524000CED00E0134A12F0070F07D0D11D21F053
:105534000701C1F5805313440A4601E04FF4805338
:105544000D4941F8F82C002041F8F40C1344083BB1
:1055540023F0070341F8F03C58601860981A506033
:10556400136041F8EC0C41F8E80C4FF0004341F8AB
:10557400E43C7047B0020020A8130020134A00E066
:105584001A4613688342FBD310B451685418A042DE
:1055940003D1406801445160104641684418A34255
:1055A4000DD10B4C54F8F04CA34206D05B6819445F
:1055B400416013681B68036002E0046000E003605C
:1055C400904200D0106010BC704700BFB0120020A1
:1055D400A813002070B50446FFF734FB354B53F88D
:1055E400F03C0BB9FFF79EFF324B53F8E43C1C42EE
:1055F4004ED164B1083414F0070F08D024F0070426
:10560400083404F0070313B1FFF794FEFEE7002CFF
:1056140040D0284B53F8E83C9C423DD8254B53F8E6
:10562400F85D01E02B4615466A68944202D92A685F
:10563400002AF7D11F4A52F8F02C95422ED01E684A
:1056440008362A681A606B681B1B102B0AD92819A4
:1056540010F0070F02D0FFF76DFEFEE743606C60A9
:10566400FFF78CFF6A68134951F8E83C9B1A41F82C
:10567400E83C51F8EC1C8B4202D20E4941F8EC3C58
:105684000C4B53F8E43C1A436A6000232B6006E099
:10569400002604E0002602E0002600E00026FFF7D2
:1056A40073FB16F0070F02D0FFF744FEFEE7304607
:1056B40070BD00BFA813002050B338B50446A0F154
:1056C400080550F8043C134A52F8E42C13EA02008B
:1056D40002D1FFF72FFEFEE754F8081C11B1FFF7C3
:1056E40029FEFEE798B191B923EA020344F8043C89
:1056F400FFF7A8FA54F8043C064A52F8E81C0B4495
:1057040042F8E83C2846FFF739FFFFF73DFB38BD78
:10571400704700BFA813002008B5837A6BB10278E4
:10572400012914BF00210121012A0CBF0A4681F07E
:10573400010201894068FBF7C9F808BD10B5416052
:1057440002810370012383720021FFF7E5FF10BD7E
:1057540038B5094D094C0023022229462046FFF79B
:10576400EDFF01230822294604F10C00FFF7E6FFB0
:105774000023238338BD00BF00140140C812002059
:105784002DE9F0418AB03A4B9A6942F010029A61CD
:105794009A6902F010020192019A9A6942F0040295
:1057A4009A619A6902F004020292029A9A6942F09A
:1057B40008029A619A6902F008020392039A9A69AC
:1057C40042F040029A619A6902F040020492049AFB
:1057D4009A6942F020029A619B6903F020030593C1
:1057E400059B244C002202212046FBF76FF8224F30
:1057F40000224FF4E0513846FBF768F8DFF8808068
:1058040000224CF28B014046FBF760F80225069516
:1058140001260796099506A92046FAF76BFF4FF46F
:10582400E05306930796099506A93846FAF762FFEE
:105834004FF46043069300240794089406A938465D
:10584400FAF758FF4CF28B0306930796099506A9BD
:105854004046FAF74FFF4FF40073069307940894F9
:1058640006A90648FAF746FF0AB0BDE8F08100BF72
:1058740000100240000801400018014000100140DF
:105884000014014030B589B041F28830FEF71AFCAB
:105894006C46134D0FCD0FC495E8030084E8030054
:1058A4006846FAF7CBFC4FF4FA72C1B2684600F0CE
:1058B400F9FE0C4B93E803000090ADF80410090CBA
:1058C4008DF8061041F28830FEF7FCFB6846FAF7C3
:1058D400B5FC4FF4FA72C1B2684600F0E3FEF1E79A
:1058E4006C680008846800080268094B9A420DD16C
:1058F40010B5084C4FF47A720121204600F0D2FE14
:10590400012221460448FDF7CBF810BD704700BFC3
:1059140000480040F81500207C150020FEE700BF79
:1059240000B585B01048114B036000238360C36049
:1059340043614FF46022C261436001230361FAF7BB
:10594400C9FD08B1FFF7EAFF0F2301930123029376
:105954000023039301A90448FAF7BAFC08B1FFF73E
:10596400DDFF05B05DF804FB3C1600200024014077
:1059740008B50A480A4B03600A4B4360002383605E
:10598400C3604FF48042026143618361C361036277
:10599400FAF7C8FF08B1FFF7C1FF08BDBC15002026
:1059A40000540040A086010000B583B01F48204B7E
:1059B40003604FF0FF33436000238360FCF794FDE2
:1059C40008B1FFF7ABFF01211848FCF7F9FD43F2DA
:1059D400F223984227D001238DF8043000228DF859
:1059E40005208DF8062001A91048FCF793FC08B1A6
:1059F400FFF794FF01238DF8003005228DF8012074
:105A04008DF8023011238DF80330002269460748CF
:105A1400FCF7E0FC08B1FFF781FF43F2F222012119
:105A24000248FCF7C5FD03B05DF804FBAC1600208A
:105A34000028004008B50D480D4B03604FF48273F5
:105A4400436000238360C360036143614FF40072C9
:105A540082613822C2610362436283620A23C362A1
:105A6400FCF7B6FD08B1FFF759FF08BD0017002089
:105A74000030014008B50D480D4B03604FF48273AC
:105A8400436000238360C360036143614FF4802259
:105A940082613822C2610362436283620A23C36261
:105AA400FCF796FD08B1FFF739FF08BD2415002067
:105AB4000038004008B50A480A4B03604FF4964387
:105AC400436000238360C36003610C2242618361ED
